{"_format":"hh-sol-artifact-1","contractName":"forbitspaceX01","sourceName":"contracts/forbitspaceX01.sol","abi":[{"inputs":[{"internalType":"address","name":"_WETH","type":"address"}],"stateMutability":"nonpayable","type":"constructor"},{"anonymous":false,"inputs":[{"indexed":true,"internalType":"address","name":"previousOwner","type":"address"},{"indexed":true,"internalType":"address","name":"newOwner","type":"address"}],"name":"OwnershipTransferred","type":"event"},{"inputs":[],"name":"WETH_","outputs":[{"internalType":"address","name":"","type":"address"}],"stateMutability":"view","type":"function"},{"inputs":[{"internalType":"address","name":"tokenIn","type":"address"},{"internalType":"address","name":"tokenOut","type":"address"},{"internalType":"uint256","name":"amountTotal","type":"uint256"},{"components":[{"internalType":"address","name":"target","type":"address"},{"internalType":"bytes","name":"swapData","type":"bytes"}],"internalType":"struct SwapParam[]","name":"params","type":"tuple[]"}],"name":"aggregate","outputs":[{"internalType":"uint256","name":"amountInTotal","type":"uint256"},{"internalType":"uint256","name":"amountOutTotal","type":"uint256"},{"internalType":"uint256[2][]","name":"retAmounts","type":"uint256[2][]"}],"stateMutability":"payable","type":"function"},{"inputs":[],"name":"collectETH","outputs":[{"internalType":"uint256","name":"amount","type":"uint256"}],"stateMutability":"nonpayable","type":"function"},{"inputs":[{"internalType":"address","name":"token","type":"address"}],"name":"collectTokens","outputs":[{"internalType":"uint256","name":"amount","type":"uint256"}],"stateMutability":"nonpayable","type":"function"},{"inputs":[],"name":"owner","outputs":[{"internalType":"address","name":"","type":"address"}],"stateMutability":"view","type":"function"},{"inputs":[],"name":"renounceOwnership","outputs":[],"stateMutability":"nonpayable","type":"function"},{"inputs":[{"internalType":"address","name":"newOwner","type":"address"}],"name":"transferOwnership","outputs":[],"stateMutability":"nonpayable","type":"function"},{"stateMutability":"payable","type":"receive"}],"bytecode":"0x60a06040523480156200001157600080fd5b5060405162001b8538038062001b858339810160408190526200003491620000b4565b80620000496200004362000060565b62000064565b60601b6001600160601b03191660805250620000e4565b3390565b600080546001600160a01b038381166001600160a01b0319831681178455604051919092169283917f8be0079c531659141344cd1fd0a4f28419497f9722a3daafe3b4186f6b6457e09190a35050565b600060208284031215620000c6578081fd5b81516001600160a01b0381168114620000dd578182fd5b9392505050565b60805160601c611a2e62000157600039600081816102fa015281816103810152818161059101528181610687015281816106b3015281816106f2015281816107b401528181610a0601528181610b5001528181610b8f01528181610df701528181610e230152610e620152611a2e6000f3fe6080604052600436106100745760003560e01c8063b26f71601161004e578063b26f7160146100ef578063c48fbb1414610111578063f2fde38b14610126578063fdff9b81146101465761007b565b806359999b4114610080578063715018a6146100b65780638da5cb5b146100cd5761007b565b3661007b57005b600080fd5b34801561008c57600080fd5b506100a061009b36600461125e565b61015b565b6040516100ad91906117fe565b60405180910390f35b3480156100c257600080fd5b506100cb6101c9565b005b3480156100d957600080fd5b506100e2610251565b6040516100ad9190611479565b6101026100fd366004611278565b61026e565b6040516100ad93929190611807565b34801561011d57600080fd5b506100e261058f565b34801561013257600080fd5b506100cb61014136600461125e565b6105b3565b34801561015257600080fd5b506100a061067f565b600073ffffffffffffffffffffffffffffffffffffffff82166101875761018061067f565b90506101c4565b600061019283610795565b91508111156101c4576101c46101a6610251565b73ffffffffffffffffffffffffffffffffffffffff8416908361087e565b919050565b6101d1610924565b73ffffffffffffffffffffffffffffffffffffffff166101ef610251565b73ffffffffffffffffffffffffffffffffffffffff1614610245576040517f08c379a000000000000000000000000000000000000000000000000000000000815260040161023c906116c7565b60405180910390fd5b61024f6000610928565b565b60005473ffffffffffffffffffffffffffffffffffffffff165b90565b60008060608573ffffffffffffffffffffffffffffffffffffffff168773ffffffffffffffffffffffffffffffffffffffff1614156102d9576040517f08c379a000000000000000000000000000000000000000000000000000000000815260040161023c906116fc565b73ffffffffffffffffffffffffffffffffffffffff871615801561034857507f000000000000000000000000000000000000000000000000000000000000000073ffffffffffffffffffffffffffffffffffffffff168673ffffffffffffffffffffffffffffffffffffffff16145b1561037f576040517f08c379a000000000000000000000000000000000000000000000000000000000815260040161023c906116fc565b7f000000000000000000000000000000000000000000000000000000000000000073ffffffffffffffffffffffffffffffffffffffff168773ffffffffffffffffffffffffffffffffffffffff161480156103ee575073ffffffffffffffffffffffffffffffffffffffff8616155b15610425576040517f08c379a000000000000000000000000000000000000000000000000000000000815260040161023c906116fc565b73ffffffffffffffffffffffffffffffffffffffff8716610482576000349550851161047d576040517f08c379a000000000000000000000000000000000000000000000000000000000815260040161023c906117c7565b6104ba565b34156104ba576040517f08c379a000000000000000000000000000000000000000000000000000000000815260040161023c906117c7565b6104c4878661099d565b6104cd87610795565b92506104d886610795565b91506104e5878786610ab4565b90506104fa6104f388610795565b8490610d5a565b925061050f8261050988610795565b90610d5a565b91506105718761056c6105306107cf61052a886107d0610d6d565b90610d79565b60408051808201909152600581527f4e5f455f540000000000000000000000000000000000000000000000000000006020820152899190610d85565b610dcb565b61057b8683610dcb565b6105848761015b565b509450945094915050565b7f000000000000000000000000000000000000000000000000000000000000000081565b6105bb610924565b73ffffffffffffffffffffffffffffffffffffffff166105d9610251565b73ffffffffffffffffffffffffffffffffffffffff1614610626576040517f08c379a000000000000000000000000000000000000000000000000000000000815260040161023c906116c7565b73ffffffffffffffffffffffffffffffffffffffff8116610673576040517f08c379a000000000000000000000000000000000000000000000000000000000815260040161023c90611542565b61067c81610928565b50565b6000806106ab7f0000000000000000000000000000000000000000000000000000000000000000610795565b1115610765577f000000000000000000000000000000000000000000000000000000000000000073ffffffffffffffffffffffffffffffffffffffff16632e1a7d4d6107167f0000000000000000000000000000000000000000000000000000000000000000610795565b6040518263ffffffff1660e01b815260040161073291906117fe565b600060405180830381600087803b15801561074c57600080fd5b505af1158015610760573d6000803e3d6000fd5b505050505b5047801561026b5761026b81610779610251565b73ffffffffffffffffffffffffffffffffffffffff1690610ef1565b600073ffffffffffffffffffffffffffffffffffffffff82166107d6577f000000000000000000000000000000000000000000000000000000000000000091505b6040517f70a0823100000000000000000000000000000000000000000000000000000000815273ffffffffffffffffffffffffffffffffffffffff8316906370a0823190610828903090600401611479565b60206040518083038186803b15801561084057600080fd5b505afa158015610854573d6000803e3d6000fd5b505050506040513d601f19601f820116820180604052508101906108789190611445565b92915050565b61091f8363a9059cbb60e01b848460405160240161089d9291906114cb565b604080517fffffffffffffffffffffffffffffffffffffffffffffffffffffffffffffffe08184030181529190526020810180517bffffffffffffffffffffffffffffffffffffffffffffffffffffffff167fffffffff0000000000000000000000000000000000000000000000000000000090931692909217909152610fce565b505050565b3390565b6000805473ffffffffffffffffffffffffffffffffffffffff8381167fffffffffffffffffffffffff0000000000000000000000000000000000000000831681178455604051919092169283917f8be0079c531659141344cd1fd0a4f28419497f9722a3daafe3b4186f6b6457e09190a35050565b806109d4576040517f08c379a000000000000000000000000000000000000000000000000000000000815260040161023c9061159f565b73ffffffffffffffffffffffffffffffffffffffff8216610a865773ffffffffffffffffffffffffffffffffffffffff7f00000000000000000000000000000000000000000000000000000000000000001663d0e30db0610a3d6107d061052a856107cf610d6d565b6040518263ffffffff1660e01b81526004016000604051808303818588803b158015610a6857600080fd5b505af1158015610a7c573d6000803e3d6000fd5b5050505050610ab0565b610ab0610a91610924565b73ffffffffffffffffffffffffffffffffffffffff8416903084611084565b5050565b6060815167ffffffffffffffff811115610af7577f4e487b7100000000000000000000000000000000000000000000000000000000600052604160045260246000fd5b604051908082528060200260200182016040528015610b3057816020015b610b1d61121c565b815260200190600190039081610b155790505b50905073ffffffffffffffffffffffffffffffffffffffff8416610b72577f000000000000000000000000000000000000000000000000000000000000000093505b73ffffffffffffffffffffffffffffffffffffffff8316610bb1577f000000000000000000000000000000000000000000000000000000000000000092505b60005b8251811015610d52576000610bc886610795565b90506000610bd586610795565b9050610cbf858481518110610c13577f4e487b7100000000000000000000000000000000000000000000000000000000600052603260045260246000fd5b6020026020010151602001516040518060400160405280600581526020017f435f535f46000000000000000000000000000000000000000000000000000000815250878681518110610c8e577f4e487b7100000000000000000000000000000000000000000000000000000000600052603260045260246000fd5b60200260200101516000015173ffffffffffffffffffffffffffffffffffffffff166110ab9092919063ffffffff16565b50610cd3610ccc88610795565b8390610d5a565b9150610ce28161050988610795565b9050604051806040016040528083815260200182815250848481518110610d32577f4e487b7100000000000000000000000000000000000000000000000000000000600052603260045260246000fd5b602002602001018190525050508080610d4a90611961565b915050610bb4565b509392505050565b6000610d66828461191e565b9392505050565b6000610d6682846118e1565b6000610d6682846118a8565b60008184841115610dc3576040517f08c379a000000000000000000000000000000000000000000000000000000000815260040161023c91906114f1565b505050900390565b80610dd557610ab0565b73ffffffffffffffffffffffffffffffffffffffff8216610ee6576000610e1b7f0000000000000000000000000000000000000000000000000000000000000000610795565b1115610ed5577f000000000000000000000000000000000000000000000000000000000000000073ffffffffffffffffffffffffffffffffffffffff16632e1a7d4d610e867f0000000000000000000000000000000000000000000000000000000000000000610795565b6040518263ffffffff1660e01b8152600401610ea291906117fe565b600060405180830381600087803b158015610ebc57600080fd5b505af1158015610ed0573d6000803e3d6000fd5b505050505b610ee181610779610924565b610ab0565b610ab06101a6610924565b80471015610f2b576040517f08c379a000000000000000000000000000000000000000000000000000000000815260040161023c90611633565b60008273ffffffffffffffffffffffffffffffffffffffff1682604051610f519061026b565b60006040518083038185875af1925050503d8060008114610f8e576040519150601f19603f3d011682016040523d82523d6000602084013e610f93565b606091505b505090508061091f576040517f08c379a000000000000000000000000000000000000000000000000000000000815260040161023c906115d6565b6000611030826040518060400160405280602081526020017f5361666545524332303a206c6f772d6c6576656c2063616c6c206661696c65648152508573ffffffffffffffffffffffffffffffffffffffff166110ab9092919063ffffffff16565b80519091501561091f578080602001905181019061104e9190611425565b61091f576040517f08c379a000000000000000000000000000000000000000000000000000000000815260040161023c9061176a565b6110a5846323b872dd60e01b85858560405160240161089d9392919061149a565b50505050565b60606110ba84846000856110c2565b949350505050565b6060824710156110fe576040517f08c379a000000000000000000000000000000000000000000000000000000000815260040161023c9061166a565b611107856111c3565b61113d576040517f08c379a000000000000000000000000000000000000000000000000000000000815260040161023c90611733565b6000808673ffffffffffffffffffffffffffffffffffffffff168587604051611166919061145d565b60006040518083038185875af1925050503d80600081146111a3576040519150601f19603f3d011682016040523d82523d6000602084013e6111a8565b606091505b50915091506111b88282866111c9565b979650505050505050565b3b151590565b606083156111d8575081610d66565b8251156111e85782518084602001fd5b816040517f08c379a000000000000000000000000000000000000000000000000000000000815260040161023c91906114f1565b60405180604001604052806002906020820280368337509192915050565b803573ffffffffffffffffffffffffffffffffffffffff811681146101c457600080fd5b60006020828403121561126f578081fd5b610d668261123a565b6000806000806080858703121561128d578283fd5b6112968561123a565b93506112a46020860161123a565b92506040850135915067ffffffffffffffff80606087013511156112c6578182fd5b6060860135860187601f8201126112db578283fd5b81813511156112ec576112ec6119c9565b6112fb6020808335020161187e565b81358152602080820191908301855b8435811015611413577fffffffffffffffffffffffffffffffffffffffffffffffffffffffffffffffe0604081843588018f03011215611348578788fd5b6040518060408201108860408301111715611365576113656119c9565b6040810160405261137b6020853589010161123a565b81528760408535890101351115611390578889fd5b83358701604081013501603f81018f136113a857898afd5b6020810135898111156113bd576113bd6119c9565b6113ce602085601f8401160161187e565b93508084528f60408284010111156113e4578a8bfd5b80604083016020860137830160209081018b90528281019390935250855293840193919091019060010161130a565b50508094505050505092959194509250565b600060208284031215611436578081fd5b81518015158114610d66578182fd5b600060208284031215611456578081fd5b5051919050565b6000825161146f818460208701611935565b9190910192915050565b73ffffffffffffffffffffffffffffffffffffffff91909116815260200190565b73ffffffffffffffffffffffffffffffffffffffff9384168152919092166020820152604081019190915260600190565b73ffffffffffffffffffffffffffffffffffffffff929092168252602082015260400190565b6000602082528251806020840152611510816040850160208701611935565b601f017fffffffffffffffffffffffffffffffffffffffffffffffffffffffffffffffe0169190910160400192915050565b60208082526026908201527f4f776e61626c653a206e6577206f776e657220697320746865207a65726f206160408201527f6464726573730000000000000000000000000000000000000000000000000000606082015260800190565b60208082526003908201527f495f410000000000000000000000000000000000000000000000000000000000604082015260600190565b6020808252603a908201527f416464726573733a20756e61626c6520746f2073656e642076616c75652c207260408201527f6563697069656e74206d61792068617665207265766572746564000000000000606082015260800190565b6020808252601d908201527f416464726573733a20696e73756666696369656e742062616c616e6365000000604082015260600190565b60208082526026908201527f416464726573733a20696e73756666696369656e742062616c616e636520666f60408201527f722063616c6c0000000000000000000000000000000000000000000000000000606082015260800190565b6020808252818101527f4f776e61626c653a2063616c6c6572206973206e6f7420746865206f776e6572604082015260600190565b60208082526005908201527f495f545f41000000000000000000000000000000000000000000000000000000604082015260600190565b6020808252601d908201527f416464726573733a2063616c6c20746f206e6f6e2d636f6e7472616374000000604082015260600190565b6020808252602a908201527f5361666545524332303a204552433230206f7065726174696f6e20646964206e60408201527f6f74207375636365656400000000000000000000000000000000000000000000606082015260800190565b60208082526003908201527f495f560000000000000000000000000000000000000000000000000000000000604082015260600190565b90815260200190565b6000606082018583526020858185015260406060818601528286518085526080870191508388019450855b8181101561186f57855183885b600281101561185c5782518252918701919087019060010161183f565b5050509484019491830191600101611832565b50909998505050505050505050565b60405181810167ffffffffffffffff811182821017156118a0576118a06119c9565b604052919050565b6000826118dc577f4e487b710000000000000000000000000000000000000000000000000000000081526012600452602481fd5b500490565b6000817fffffffffffffffffffffffffffffffffffffffffffffffffffffffffffffffff04831182151516156119195761191961199a565b500290565b6000828210156119305761193061199a565b500390565b60005b83811015611950578181015183820152602001611938565b838111156110a55750506000910152565b60007fffffffffffffffffffffffffffffffffffffffffffffffffffffffffffffffff8214156119935761199361199a565b5060010190565b7f4e487b7100000000000000000000000000000000000000000000000000000000600052601160045260246000fd5b7f4e487b7100000000000000000000000000000000000000000000000000000000600052604160045260246000fdfea2646970667358221220d1eb2dd5b093235984f583edb0c4a0f2f44fff1e19fef5d9c6dd374a7139d95b64736f6c63430008000033","linkReferences":{},"deployedLinkReferences":{},"address":"0xC04c0C3E17DA8A4c2f348581667e4Cb7c6d24515"}